:100341001200037F007EF81202737FE87E0312031E
:10035100DA7FE87E031203DA7FE07E071202737F01
:10036100E87E031203DA7FE87E031203DA7F1F7E41
:10037100001202737FE87E031203DA7FE87E031224
:0403810003DA80BF5C
:1003DA00E4FDFCC3ED9FEE6480F8EC648098501550
:1003EA00E4FBFA0BBB00010ABA03F8BBE8F50DBD42
:0503FA0000010C80DE93
:0103FF0022DB
:10040000E4FDFCC3ED9FEE6480F8EC648098501529
:10041000E4FBFA0BBB00010AEB64014A70F50DBD69
:0504200000010C80DE6C
:0104250022B4
:0300000002016496
:0C016400787FE4F6D8FD7581070201AB3E
:0A0488004200000000420002FFFFE6
:100460007E80EE60135F6004D2958002C295C297D1
:08047000D297EEC313FE80EAEF
:010478002261
:0A049300C292C293120460D29322B9
:0504790012047EE4FF07
:0A047E00D292C293120460D29322BE
:10038500AD07AC06EC54F8FF12047EEDAE0478031D
:10039500CEC313CE13D8F954FCFF12047EAE04ED80
:0D03A5007803C333CE33CED8F9FF02047EB7
:0804A600120493AF0502047E6D
:09049D0090000BA3E0FF020493A0
:08027300900011EEF0A3EFF082
:10027B00900005E024FFFB900004E034FFFA9000AF
:10028B0007E024FFFE900006E034FF90001BF0A374
:10029B00CEF0E4FDFCFFFE1202F4E4900013F0A399
:1002AB00F0900004E0FEA3E0FFC3900014E09F90E9
:1002BB000013E09E5032E4FBFAD3900007E09B90D2
:1002CB000006E09A4012900011E0FEA3E0FF12033B
:1002DB00850BBB00010A80E1900014E004F070C1B3
:0802EB00900013E004F080B95B
:0102F30022E8
:1003B200AB07AA068D828C83C006C007AE83AF82CC
:1003C20090001BEEF0A3EFF0D007D0061202F490DB
:0803D2000000A3E0FF02047E1D
:10044500D2B37F327E001203DAC2B37F327E00124E
:0B04550003DAD2B37F327E000203DA2C
:100003001204457FF11204937F3612047E7F04129B
:1000130004797F3C12047E7F0F12047E7F8F1204CB
:100023007E7FF21204937F1812047E7FA312047E54
:100033007F1212047E7F0212047E7FB212047E7F3F
:100043001212047E7FFF12047E7F101204797FF860
:100053001204937F2112047E7F0412047E7FF9121F
:100063000493E4FF12047E7F0812047E7F36120499
:10007300937F0812047E7FB4120493E4FF12047E7C
:100083007FC11204937F4712047E7FC5120493E459
:10009300FF12047E7FAF12047E7F801204797FE01B
:1000A3001204937F0F12047E7F1F12047E7F1C12A3
:1000B300047E7F0C12047E7F0F12047E7F081204DD
:1000C3007E7F4812047E7F9812047E7F3712047E5F
:1000D3007F0A12047E7F1312047E7F0412047E7F44
:1000E3001112047E7F0D1204797FE11204937F0FB6
:1000F30012047E7F3212047E7F2E12047E7F0B1247
:10010300047E7F0D12047E7F0512047E7F47120456
:100113007E7F7512047E7F3712047E7F0612047E73
:100123007F1012047E7F0312047E7F2412047E7FDD
:10013300201204797F3A1204937F6612047E7F11A2
:100143001204937F361204937F2812047E7F787EF5
:10015300001203DA7F29120493E4FF1201F0D2B2F2
:010163002279
:1002F400900015EEF0A3EFF090000DA3E0FF1204C0
:1003040093900015E0FF12047EA3E0FF12047EEA3E
:10031400FF12047EAF0312047E90000FA3E0FF12CD
:100324000493ECFF12047EAF0512047E90001BE0E0
:0D033400FF12047EA3E0FF12047E02049D70
:10042600AB07AA068D828C83C006C007AE83AF8257
:0F04360090001BEEF0A3EFF0D007D0060202F407
:1001F00090000DE4F0A3742AF0A3E4F0A3742BF0B4
:1002000090000BE4F0A3742CF0EF14602014603322
:100210001460462403705B9000047401F0A37440E2
:10022000F0A37401F0A374E0F07D488040900004D6
:100230007401F0A374E0F0A37401F0A37440F07DA6
:1002400028802A9000047401F0A37440F0A3740184
:10025000F0A374E0F07D8880149000047401F0A392
:1002600074E0F0A37401F0A37440F07DE87F3612CF
:0302700004A622BF
:10017000020341E493A3F8E493A34003F68001F261
:1001800008DFF48029E493A3F85407240CC8C33390
:10019000C4540F4420C8834004F456800146F6DF5F
:1001A000E4800B0102040810204080900488E47E63
:1001B000019360BCA3FF543F30E509541FFEE49354
:1001C000A360010ECF54C025E060A840B8E493A31B
:1001D000FAE493A3F8E493A3C8C582C8CAC583CA46
:1001E000F0A3C8C582C8CAC583CADFE9DEE780BEFE
:010492000069
:00000001FF
